:020000040800F2
:10000000481D0020B9020008C1020008751B000845
:10001000C5020008C7020008C9020008000000006D
:10002000000000000000000000000000CB020008FB
:10003000CD02000800000000CF020008855600082D
:10004000D3020008D3020008D3020008D30200083C
:10005000D3020008D3020008D3020008D30200082C
:10006000D3020008D3020008D3020008D30200081C
:10007000D3020008D3020008D3020008D30200080C
:10008000D302000800000000F5040008D3020008B5
:10009000D3020008D3020008D3020008D3020008EC
:1000A00065580008B9580008D3020008D3020008B8
:1000B000CD580008D3020008D3020008D30200087C
:1000C000D3020008D3020008D3020008D3020008BC
:1000D000D3020008D30200082D600008D3020008F4
:1000E000B1190008D3020008D3020008D3020008A7
:1000F000D3020008D3020008D30200080000000069
:1001000000000000D302000800000000D302000835
:10011000D302000800000000D3020008D302000848
:10012000D3020008D3020008D3020008D30200085B
:10013000D30200080000000000000000D302000805
:10014000D3020008D30200080000000000000000F5
:10015000000000000000000000000000000000009F
:10016000000000000000000000000000D3020008B2
:10017000D3020008000000000000000000000000A2
:1001800000000000D3020008000000000000000092
:10019000000000000000000000000000000000005F
:1001A0000000000000000000D3020008D302000895
:1001B000D3020008D3020008D302000800000000A8
:1001C00000000000D3020008000000000000000052
:1001D000D3020008D302000800F002F800F05CF837
:1001E0000AA090E8000C82448344AAF10107DA4592
:1001F00001D100F051F8AFF2090EBAE80F0013F088
:10020000010F18BFFB1A43F00103184710750000D7
:10021000307500000A444FF0000C10F8013B13F059
:10022000070408BF10F8014B1D1108BF10F8015B4F
:10023000641E05D010F8016B641E01F8016BF9D142
:1002400013F0080F1EBF10F8014BAD1C0C1B09D199
:100250006D1E58BF01F801CBFAD505E014F8016B0B
:1002600001F8016B6D1EF9D59142D6D3704700009D
:100270000023002400250026103A28BF78C1FBD8AF
:10028000520728BF30C148BF0B6070471FB507F049
:100290001FF91FBD10B510BD00F0F1F81146FFF7B2
:1002A000F5FF06F0CBF800F00FF903B4FFF7F2FF0B
:1002B00003BC00F017F900000948804709480047CF
:1002C000FEE7FEE7FEE7FEE7FEE7FEE7FEE7FEE706
:1002D000FEE7FEE704480549054A064B7047000063
:1002E00051580008D901000848170020481D002077
:1002F0004819002048190020032A40F2308010F0ED
:10030000030C00F0158011F8013BBCF1020F6244B0
:1003100098BF11F801CB00F8013B38BF11F8013B41
:10032000A2F1040298BF00F801CB38BF00F8013BEE
:1003300011F0030300F02580083AC0F0088051F85E
:10034000043B083A51F804CBA0E80810F5E7121D69
:100350005CBF51F8043B40F8043BAFF30080D20788
:1003600024BF11F8013B11F801CB48BF11F8012B54
:1003700024BF00F8013B00F801CB48BF00F8012B77
:10038000704710B5203AC0F00B80B1E81850A0E8D3
:100390001850B1E81850A0E81850203ABFF4F5AF53
:1003A0005FEA027C24BFB1E81850A0E8185044BFAF
:1003B00018C918C0BDE810405FEA827C24BF51F81C
:1003C000043B40F8043B08BF7047D20728BF31F810
:1003D000023B48BF11F8012B28BF20F8023B48BF61
:1003E00000F8012B70474FF000020429C0F0128082
:1003F00010F0030C00F01B80CCF1040CBCF1020FD8
:1004000018BF00F8012BA8BF20F8022BA1EB0C01AC
:1004100000F00DB85FEAC17C24BF00F8012B00F8A2
:10042000012B48BF00F8012B70474FF0000200B5C8
:10043000134694469646203922BFA0E80C50A0E807
:100440000C50B1F12001BFF4F7AF090728BFA0E8B5
:100450000C5048BF0CC05DF804EB890028BF40F881
:10046000042B08BF704748BF20F8022B11F0804FC3
:1004700018BF00F8012B70477047704770477546EA
:1004800000F02CF8AE4605006946534620F0070000
:10049000854618B020B5FFF71DFFBDE820404FF09E
:1004A00000064FF000074FF000084FF0000BAC467D
:1004B000ACE8C009ACE8C009ACE8C009ACE8C009C8
:1004C00021F007018D46704710B50446AFF3008058
:1004D0002046BDE81040FFF7E8BE00000048704726
:1004E000C004002001491820ABBEFEE72600020030
:1004F0007047000010B54FF0A040006840F20014B3
:100500000006C5F2000444BF54F8FC0C5FEA00602A
:1005100016D42068000646BF60685FEA006010BD20
:100520008020206040F2B810C2F20000C17A40F290
:100530000C00C2F20000BDE8104000F0FBBF00BF9D
:100540004FF0A0408021016040F2B810C2F20000DC
:10055000C17A40F20C00C2F2000000F0EBFFD8E7D5
:1005600010B5044690F86500012819D0002818BF7E
:1005700010BDE06947F25E52C1B2C0F60002515CA4
:10058000C0F307235940515CC0F307435940515C05
:1005900081EA1061515C59B1042084F8620010BDF9
:1005A000002084F86500012084F8610010BD00BFC0
:1005B00000F00F014A1F022AA16603D2012084F82D
:1005C000610010BD09290DD1C0F30B12002AA4F857
:1005D0005C20F3D0B4F85E00824207D9022084F890
:1005E000620010BD012084F8620010BD94F86C30E8
:1005F000D4E90501D4F854C002EB4302E0470120DE
:1006000084F8650010BD000010B5044690F8240081
:10061000032807D194F82E000021022884F8241022
:1006200007D01FE0A16C00228A7194F82E100229D5
:100630000AD154F8281F236B54F8140CA2882462A2
:1006400098470320A07110BD02280BD16069A36DEB
:1006500004F120010422A1649847032084F82400B7
:1006600010BD00BFEFF3108072B6636CE3B1606938
:10067000D4F858E019689A884FF0030CA36483F803
:1006800006C0F04794F83600022803D094F83E00E4
:1006900002280DD104F13000616C2044401A38303A
:1006A000606462B610BD00BF0020A06462B610BDD9
:1006B0000020606462B610BD80B503464FF0000EA6
:1006C0004069D3F854C003F11C01042283F865E0AB
:1006D000BDE88040604700002DE9F04F81B005463D
:1006E000044655F81C0F002695F845200E80002A78
:1006F00078D094F8642084F86160022A00F09E802B
:10070000012A00F00D81002A40F0B882A16E06296E
:1007100000F0CC81052940F00382627F94F86CC020
:10072000C0F3C01194F86DB094F86EE002F03F028F
:10073000C0F386398C45884638BFE04693459246DB
:100740004B4684F86C8038BFDA4684F86DA0F145DA
:1007500088BF734694F86F70C0F34656BE4284F863
:100760006E30009688BF3E468C4584F86F6028BF87
:10077000934580F0478294F8700047F25E5700017D
:1007800040EAC81040EA0A2040EA833040EA465175
:100790004A1DD3B2C0F60007FB5CC0F307205840E7
:1007A000385CC1F307435840385CC1F303614840EB
:1007B00047F20071C0F60001085C214642EA007071
:1007C00041F8200FEFF3108072B6886A002800F01D
:1007D0000D8262B694F82400002800F0EB81002618
:1007E0004CE200BF94F86200002800F0078147F255
:1007F0005E5280F00901C0F60002515C03024140E4
:10080000515C47F20072C0F60002515C43EA0040BE
:1008100040EA01700F30214641F8200FEFF31080BD
:1008200072B6886A002800F0EF8062B694F824005F
:10083000002804BF022084F82400EEE0A26E092AFA
:1008400000F07281062A00F07B81052A40F0B88111
:10085000617F94F86C80C0F3C01394F86D7094F8C5
:100860006EE001F03F02C0F3863C98459A4638BFDF
:10087000C24697429346E14684F86CA038BFBB4617
:1008800084F86DB0F44588BFF14694F86F10C0F35A
:1008900046568E4284F86E90009688BF0E46984564
:1008A0004FF0000384F86F6028BF974280F0F0811A
:1008B00094F87000000140EACA1040EA0B2040EAB8
:1008C000893040EA46514A1D47F25E56D7B2C0F61B
:1008D0000006F75DC0F307207840305CC1F307479E
:1008E0007840305CC1F30361484047F20071C0F6C4
:1008F0000001085C214642EA007041F8200F81F8AF
:100900004430EFF3108072B6886A002800F0A681A8
:1009100062B694F82400002800F04C810026ADE176
:10092000A16E062900F08480052940F0FB80617FDC
:1009300094F86CC0C0F3C01794F86DB094F86EE0F2
:1009400001F03F02C0F38638BC45B94638BFE146E6
:1009500093459246434684F86C9038BFDA4684F853
:100960006DA0F04588BF734694F86F10C0F34656EB
:100970008E4284F86E30009688BF0E46BC4584F8DF
:100980006F6028BF934580F0598194F87010002063
:1009900084F86400080140EAC91040EA0A2040EAED
:1009A000833040EA46514A1D47F25E57D3B2C0F643
:1009B0000007FB5CC0F307205840385CC1F30743D5
:1009C0005840385CC1F30361484047F20071C0F6FB
:1009D0000001085C214642EA007041F8200FEFF365
:1009E000108072B6886A002800F0EC8062B694F835
:1009F0002400002800F0DE8000263FE1002630467B
:100A000001B0BDE8F08F00BF032084F82400A1648A
:100A100062B66069A36D042298476069216D002663
:100A200084F862608847304601B0BDE8F08F00BFAF
:100A300094F8601094F8632001F001018B01C0F379
:100A40000F3743EA073302F00F0243EAC11141EACC
:100A5000022101F1360247F25E56D3B2C0F600061B
:100A6000F35CC1F307215940715CC0F30740484073
:100A7000305C47F2007180EA1730C0F60001085C74
:100A8000214642EA007041F8200FEFF3108072B661
:100A9000886A002800F09C8062B694F82400002840
:100AA00004BF022084F824009BE000BF94F860108B
:100AB00094F8632001F001018B01C0F30F3743EA82
:100AC000073302F00F0243EAC11141EA02218A1DF5
:100AD00047F25E56D3B2C0F60006F35CC1F30721BD
:100AE0005940715CC0F307404840305C47F20071E8
:100AF00080EA1730C0F60001085C214642EA007027
:100B000041F8200FEFF3108072B6886A002800F0D9
:100B1000738062B694F8240000284BD00026ADE024
:100B20000026ABE00026A9E094F86000B4F85C2051
:100B30000130A66984F8600001200A8020749DE0DD
:100B400094F8601094F8632001F001018B01C0F368
:100B50000F3743EA073302F00F0243EAC11141EABB
:100B6000022101F1360247F25E56D3B2C0F600060A
:100B7000F35CC1F307215940715CC0F30740484062
:100B8000305C47F2007180EA1730C0F60001085C63
:100B9000214642EA007041F8200FEFF3108072B650
:100BA000886A002860D062B694F8240010B100264C
:100BB00064E000BF022084F8240000265EE000BF4D
:100BC00000265BE0032084F82400A16462B650E0B4
:100BD000032084F82400A16462B66069A36D042236
:100BE0009847022084F86400002647E0032084F838
:100BF0002400A16462B63CE0032084F82400A164D0
:100C000062B636E0F1453FF6B6AD0099B9423FF61F
:100C1000B2AD94F87010C0F3021088427FF4ABAD0F
:100C2000202000EB431100EB4A10A181B101A4F890
:100C30005E000120E18184F864009CE5F0453FF608
:100C4000A4AE009A8A423FF6A0AE94F87010C0F3AA
:100C5000021088427FF499AE9CE600BF032084F81E
:100C60002400A16462B604E0032084F82400A16497
:100C700062B66069A36D0422984700266069636DBF
:100C8000294604229847304601B0BDE8F08F00BFE6
:100C9000F4454FF000033FF60BAE009A8A423FF650
:100CA00007AE94F87010C0F30210401AB0FA80F04A
:100CB0004309FDE570B5D2F800C047F25E565FFA11
:100CC0008CFEC0F6000616F80E40CCF307256540F2
:100CD000755DCCF307446540765DCCF303656E40EB
:100CE00047F20075C0F60005AE5D4CEA0676166068
:100CF000EFF3108672B6866CC6B162B6F1B10A29FE
:100D000026D0092920D1D0F840C0466CDCF800106C
:100D1000891A18BF0321002E08BFC0F844C0022062
:100D20008CF80600C8B2ACF8043070BD0A291FD098
:100D3000092923D1016C03268E7124E090F8241038
:100D400091B9022180F824100021C8B270BD00BF03
:100D500090F82E10012907D1022180F82E108385EA
:100D60000021C8B270BD00BF0321C8B270BD00BF72
:100D7000032600F1280180F82E6004E000F1200134
:100D8000032680F82460816462B64169866D084656
:100D900011461A46B0470021C8B270BD0A2A0DD1CB
:100DA00090F82E20012A84BF00207047826A043206
:100DB0000A60012280F82E201046704790F83620F5
:100DC000022A0DD390F83E20012A84BF00207047EC
:100DD0000122836B00F1380C80F83E2006E000BF52
:100DE000036B00F1300C012280F83620C0F840C0BF
:100DF000181D08601046704710B590F864C0BCF12B
:100E0000020F1CBF022010BD90F86C4043EA021E86
:100E10008C46012C4CF804ED02BF4FF6CA648C528C
:100E200002320A2B03D1017C61B100210174111D32
:100E30001FFA81FE194662467346BDE81040FFF76F
:100E400039BF00BF012010BD10B504464069E16CF8
:100E500088474FF0000C6069636DA4F864C004F12A
:100E60001C01042284F860C0BDE81040184700004F
:100E7000F0B590F84EE090F86910714504D290F802
:100E80006910013180F8691090F8677017B1D0F8D7
:100E9000E0100DE0B0F9621041B1D0F8B430D0F8F4
:100EA000C46001335943B6FBF1F101E04FF6FF7125
:100EB000D0F8B430D0F8CC6001334B43B342C0F823
:100EC000D41038BFF0BDB0F8B810826D00EB8104CB
:100ED00054F86C5FD0F8C86090F95EC0551BB342FF
:100EE000856507D203FB0C5503FB0CF22260856578
:100EF00003E000BF06FB0CF2226001318AB2B2EBC4
:100F00000E0218BF0A46A0F8B82090F86920002108
:100F1000724538BF0121002B1C4618BF01246FB158
:100F200021400BD1BEF1000F12D0AEF10101032917
:100F30000EF0030C10D2002300221EE0D0F8C410E3
:100F4000B1FBF3F101FB0CF1A0F86010F0BD00BFA4
:100F50004FF0000E002221E00EF0FC0100230022E1
:100F600000EB830404F16C07E0CFA46F2A44324401
:100F70003A44043399422244F2D1BCF1000F0DD01F
:100F800000EB8301CB6EBCF1010F1A4406D00B6F4E
:100F9000BCF1020F1A4401D0496F0A44D0F8C410C2
:100FA00092FBFEF291FBF2F1A0F86010F0BD0000A0
:100FB000B0B50446B0F860000D46E08150B147F688
:100FC000FF71884212D1B4F8C01094F867002980EC
:100FD00028B92AE0002194F86700298028B3204628
:100FE000294604F0BFF9298805461FE0B4F8BC1073
:100FF000A2880FFA80FC891AB4F8D020A4F8BA109D
:1010000009B291FBF2F2618BE36960780CFB01F1AC
:1010100001EB81015843490091FBF0F1A4F8BE2097
:1010200094F8670029800028D9D101252046A181A4
:10103000FFF71EFF2846B0BDC28947F6FF718A42FE
:1010400006D1B0F85C1082881144818008B27047E4
:1010500090F86730B0F8BC10002BF6D11144A0F81E
:10106000BC10B0F8BE10838811441944A0F85C206D
:10107000818008B270470000B0F96210428B43785B
:101080005143C26901EB810149005A4391FBF2F1DE
:101090000022B2EB014F0DD00904D0F8F020091462
:1010A000D0F8F830B2FBF1F1994238BF1946C0F8D8
:1010B000E8107047D0F8F810C0F8E810704700004A
:1010C000B0F90C1001EBE13282EAE131B0F8EC202A
:1010D00009B291420ADAD0E93D23B2FBF1F199421B
:1010E00038BF1946C0F8E810704700BFD0F8F810B4
:1010F000C0F8E81070470000002180F820108165DA
:10110000418280F86910A0F8BE10A0F8B810818064
:101110000170A0F866107047F0B5D0F82260C76A79
:101120000E60C68CC1F80A70B0F842708E801780CD
:10113000B0F84420DDE905541A80B0F8EC2090F8AE
:1011400030602A80C28F8E73D0F8F8102280DDE9DB
:1011500007ECE960B0F8401090F8D200AEF800104B
:10116000ACF80000F0BD0000F0B581B0D0F848C088
:101170004FF6C07EDCF81030DCE902215C68C7F66F
:10118000FF7E24F080045C604C680EF1604524F022
:1011900080044C60546824F08004546080241C60F7
:1011A0000C6014609C682C409C608C682C408C60A7
:1011B00094682C4094609C680EF170452C4004F1BA
:1011C00080549C608C682C4004F180548C6094683E
:1011D0002C4004F18054946040F2A834C2F2000420
:1011E000246842F66355A409C0F23E55A4FB0545A8
:1011F0006FF0010404EA55140094009CACB100BFE8
:10120000009C013C0094009C7CB1009C013C00943B
:10121000009C54B1009C013C0094009C2CB1009CAB
:10122000013C0094009C002CEAD19D680EF14044E2
:10123000254045F000459D609D68002D0BD59D68BB
:10124000B5F1FF3F07DC9D68B5F1FF3F03DC9D680A
:10125000B5F1FF3FF0DD8B4213D08D68254045F09E
:1012600000458D608D68002D0BD58D68B5F1FF3F71
:1012700007DC8D68B5F1FF3F03DC8D68B5F1FF3FFA
:10128000F0DD9A4218BF8A4240F00881DCF828401D
:101290000727C4F3406503EB85056E69C4F3045466
:1012A00007FA04F426EA04046C61DCF82440C4F371
:1012B000406501EB85056E69C4F3045407FA04F434
:1012C00026EA04046C61DCF82040C4F3406502EBBC
:1012D00085056E69C4F3045407FA04F426EA04048D
:1012E0006C611C68E4072BD19C6804EA0E0444F08E
:1012F00001049C601C68E40722D19C6804EA0E0487
:1013000044F001049C601C68E40719D19C6804EA5D
:101310000E0444F001049C601C68E40710D19C6832
:1013200004EA0E0444F001049C601C68E407DBD06E
:1013300006E000BF8B6803EA0E0343F001038B60F5
:101340000B68DB0722D18B6803EA0E0343F001032D
:101350008B600B68DB0719D18B6803EA0E0343F03F
:1013600001038B600B68DB0710D18B6803EA0E0367
:1013700043F001038B600B68DB07DBD006E000BFA6
:10138000916801EA0E0141F0010191601168C907FD
:101390001AD1916801EA0E0141F0010191601168D2
:1013A000C90711D1916801EA0E0141F00101916074
:1013B0001168C90708D1916801EA0E0141F00101E5
:1013C00091601168C907DBD0C28A4778868A7A4360
:1013D000002193B207FB06F2B1EB930F4FEA4202F2
:1013E00080F8541008D09B0803EB43035B0042F2E3
:1013F0001077B7FBF3F300E09623076D44F6D3565E
:101400007B43C1F26206A3FB063593B25B0013FA7D
:1014100082F341F200045B00C0F22704B4FBF3F353
:10142000A0F8C0209BB27B43A3FB06364AF6AB2351
:10143000CAF6AA23B60BA7FB0337C0F8CC60468BCD
:10144000BF08AB09B7FBF6F7C569C0F8C83005FBA4
:1014500007F290F8D370B0F84C507743B7FBF5F72C
:10146000C0F8C4207A1EA0F8D02000F12C028263BC
:1014700090F84E2080F83C10002A816580F82010FA
:101480004CD0012AC36649D0531E911E032903F094
:1014900003011DD2012291BB40E000BF95682C40A2
:1014A00044F00044946000BF9468002C7FF5EEAED9
:1014B0009468B4F1FF3F3FF7E9AE9468B4F1FF3FA1
:1014C0003FF7E4AE9468B4F1FF3FEDDDDEE600BF28
:1014D00023F00303002200BFD0F8C87000EB82069F
:1014E0003767D0F8C87004327767D0F8C870934275
:1014F000B767D0F8C870F767EED1013271B1D0F894
:10150000C83000EB82020129D36607D0D0F8C8307A
:10151000022913671CBFD0F8C8005067DCF8000030
:10152000016841F00101016001B0F0BD90F8660072
:101530007047000070B590F8FC20012A18BF70BDFC
:1015400090F85E4046F6AA22012C04BF4EF6AB226C
:10155000CFF6FF7242F6AA2311FB0323826CA0F898
:10156000BC3002EB81039B685D6825F080055D60FF
:1015700090F8205090F864309D4284BF012380F899
:101580006630D2F800E00135DEF82420DEF82C3099
:10159000D0F8E46003F1010C931B38BF63440529C4
:1015A00080F8205034D8012505FA01F111F0150F0B
:1015B0000ED0012C0ED090F8D210C0F8D8300229ED
:1015C000194608BFD0F8E01000F142040DE000BF5A
:1015D000012CF0D090F8D210C0F8DC300229194666
:1015E00000F1440408BFD0F8E0102488C0F8E030CF
:1015F000614302EB512190F867302BB1B1EB0C0342
:1016000038BF0B46CEF83430C0F8E42070BD00BFC0
:10161000002190F86730002BF0D1F5E7F0B50D68A8
:10162000D1F80A60C0F822508D88C662C58412883D
:10163000059FA0F842201A883B88DDE9064EA0F8F5
:101640004420A0F8EC302288897BC28780F83010D3
:10165000BEF80010DDF820C0A0F84010FA689CF831
:101660000010C0F8F82080F8D210F0BD002818BF94
:1016700080F85E107047000080B5816C0123096816
:10168000D0F8D4C0D0F8E8E0CA6A80F86730486B78
:1016900001326044A0EB0E00821A38BF02464A6352
:1016A00080BD000080B590F86830B2F806E0ABB1BC
:1016B0000021C38C80F83C1000F12C01816303FBF6
:1016C0000EF1838C028D03FB0EF3B1FBF2F1B3FB41
:1016D000F2F2438D41869918818680BD0988C38FB7
:1016E000994211D9418C038D01FB0EF1B1FBF3F14D
:1016F000428D1144012280F83C2000F12E028263C9
:101700004186818680BD00BFB0F84030994209D241
:101710000021C38C80F83C1000F12C01816303FB95
:101720000EFC10E090F83C1051B1418C038D01FB90
:101730000EF1B1FBF3F1428D11444186818680BDEB
:10174000C18C01FB0EFC838C018D03FB0EF2BCFBF4
:10175000F1F3B2FBF1F1428D43861144818680BDE5
:10176000806C0068C16821F00201C1607047000010
:1017700010B5836C525C03EB810C3223DCF808401B
:10178000012A08BF342390F8542030F803E03AB11E
:10179000626822F080026260052906D92FE000BF4E
:1017A000012280F85420052929D8012202FA01F1EA
:1017B00011F0150F10D090F85E30214651F8202F0F
:1017C000012B10D040F6FF739A430A600A68CEF3EB
:1017D0000F1363F31B4211E090F85E30214651F87D
:1017E000202F012BEED042F0706242F47F020A609B
:1017F0000A6840F6FF739A4342EA1E120A605CF8D8
:10180000202F01214FEA826E092A01FA02F107D83E
:1018100041EA0E0102EB420241EA02510CE000BF34
:10182000002302EB4202CFF6206303EB025241EAAF
:101830000E01114341F00071E26C890E61F34D22FB
:10184000E264DCF8002001214FEA826C092A01FAE7
:1018500002F107D841EA0C0102EB420241EA0251CF
:101860000CE000BF002302EB4202CFF6206303EB43
:10187000025241EA0C01114341F00071E2684FF657
:10188000FF73C8F23F2301F0F8411A40114401F1FF
:10189000A071E160216A90F830004FF20002CFF6AB
:1018A000FF7221F4E04102EB003008432062802007
:1018B000206060684FF6C07140F080006060A068F2
:1018C000C7F6FF7108400830A06010BD10B5826CEB
:1018D00090F867C012683423BCF1000F08BF2423BE
:1018E00052F803E0D0F8E830D46A734404F1010EF2
:1018F000002480F8FC40B3EB0E0438BF1C466FF0A8
:10190000020354631361D368BCF1000F43F0020378
:10191000D3600FD090F85E1042F6AA22FF29B0F8EB
:10192000BC1004BF4DF25652CFF6FF721144A0F81E
:10193000BC1010BDB1F1FF3FD8BF4942A0F8621002
:1019400010BD000080B5826C1369D2E902C25968EB
:1019500021F080015960516821F080015160DCF86C
:10196000041021F08001CCF804108021196011606E
:10197000CCF8001090F85410002908BF80BD996879
:101980004FF6C07EC7F6FF7E01EA0E012031996056
:10199000916801EA0E0120319160DCF8081001EA3B
:1019A0000E012031CCF80810002180F8541080BDC1
:1019B00040F21440C4F201000168490558BF704765
:1019C0004FF48061016004F025BB000040F200008C
:1019D00041F24471C2F20000C2F2000140680A689C
:1019E000104408607047000080B542F20000C4F265
:1019F0000200016841F480710160032000F080F86A
:101A0000042000F009F800281CBF012080BD00F070
:101A10002BF8002080BD000070B540F20006C2F235
:101A200000067168E1B1044640F2A830C2F200003D
:101A30004FF47A720068B2FBF1F1B0FBF1F000F004
:101A400081F80F2C4FF0010508D838B94FF0FF305E
:101A500021460022002500F027F83460284670BD9A
:101A60000125284670BD000080B582B041F25800C3
:101A7000C4F20200816841F001018160816801F0D7
:101A8000010101910199016841F0805101600068F4
:101A900000F0805000900098042000F031F802B06F
:101AA000BDE8804000F03CB810B54EF60C5CCEF2BC
:101AB000000CDCF80030C3F3022E8EF00704042C77
:101AC00028BF0424BEF103034FF0FF3E0EFA04F4D6
:101AD00038BF0023A14399400EFA03F39A4300F064
:101AE0000F03043B1143634409010C3300F16042CE
:101AF000B0F1FF3FC8BF02F56443197010BD00008C
:101B00004EF60C51CEF200010A684FF6FF031A4060
:101B100060F30A2242F0806040F0FD700860704778
:101B200047F20800C4F20000016841F480410160FE
:101B30007047000040F2A830C2F200000068704711
:101B400070470000411E0020B0EB116F1CBF012048
:101B500070474EF21002CEF2000251604EF6235151
:101B6000CEF20001F0230B700721906011607047E6
:101B7000FFF7E6BF03F0F0FEFEE7000080B50822A5
:101B8000C5F200021368D2F800211A43D2071CBF25
:101B9000012080BDD1E900C3826843F2E00ECFF698
:101BA000C07E02EA0E025BB143EA0C03D1E902C136
:101BB0001A4342EA0C0211438160002080BD00BF3D
:101BC00042EA0C018160002080BD000010B58268EF
:101BD000D2071CBF012010BD4C68C36823F00473FA
:101BE00034B1D1E902CE43EA0C0343EA0E0301E02B
:101BF000CA681343C360C26C096840F2FF139A437A
:101C000021431143C164002010BD00008268D20747
:101C10001CBF01207047C2684CF2180322EA030C73
:101C2000D1E90032896843EA0C031A431143C160C9
:101C30000020704710B58268D2071CBF012010BD7C
:101C4000D1E900C4C3684CF21C0ECFF6F07E03EA63
:101C50000E033CB1D1F808E043EA0C0343EA0E0C52
:101C600002E000BF4CEA030CD1E90332496943EAC0
:101C70000C031A431143C160016B21F00F01214392
:101C80000163002010BD000080B5017A036840F2B6
:101C9000004EC4F2010E99B163B3417A02292FD0EC
:101CA000012931D0002951D1DEF804109943CEF832
:101CB0000410DEF800101943CEF800102EE000BF2B
:101CC000DEF800104FF0000C9943CEF80010DEF85B
:101CD00004109943CEF804104068DEF820108143C8
:101CE000CEF82010DEF8241021EA0000CEF82400FF
:101CF00087E000BF4FF0000C43688BBB81E000BF62
:101D0000DEF80010194302E0DEF800109943CEF827
:101D10000010DEF804101943CEF804104FF0000C48
:101D2000817A032917D8DFE801F018035B5F00BF51
:101D3000DEF80C109943CEF80C10DEF808101943A9
:101D4000CEF8081043685BB95BE000BF4FF0010CB0
:101D5000817A0329E7D90CF1020C4368002B50D09B
:101D6000417A022910D0012912D079BBDEF8241063
:101D70009943CEF82410DEF820101943CEF8201035
:101D8000807A032811D926E0DEF82010194302E0FA
:101D9000DEF820109943CEF82010DEF82410194305
:101DA000CEF82410807A032815D8DFE800F02A0343
:101DB0002D3100BFDEF82C009843CEF82C00DEF861
:101DC00028001843CEF82800604680BD0CF1040CB2
:101DD000807A0328E9D94CF0050C604680BD00BF2D
:101DE000DEF80810994302E0DEF808101943CEF837
:101DF0000810DEF80C101943CEF80C104368002BC5
:101E0000AED1604680BD00BFDEF82800984302E0F6
:101E1000DEF828001843CEF82800DEF82C0018431E
:101E2000CEF82C00604680BD2DE9F04F0C6894FA86
:101E3000A4F2B2FA82F234FA02F363D04FF001084E
:101E40004FF0030B0BE000BFD1E900470568B74036
:101E50002B403B430360013234FA02F352D008FABC
:101E600002F314EA030CF6D0D1F80490A9F10103AF
:101E7000022B1BD29CFAACF6B6FA86F77E00D0F89D
:101E800008A00BFA06F3D1E902BE2AEA030A0BFA0C
:101E900006F545EA0A05856045684FF0030BA54342
:101EA0000EFB04F4DB432543456007E09CFAACF3EA
:101EB000B3FA83F77E000BFA06F3DB430D69C468BF
:101EC000B5401C402543B9F1020FC560BCD14FEAB3
:101ED0001C2494FAA4F4D1F814E0BCF5807F28BF48
:101EE000B4FA84F74FF0240438BF202450F804C01B
:101EF000BF000F25BD402CEA05050EFA07F72F435A
:101F00000751A1E70020BDE8F08F0000C0281CBFEA
:101F10000020704741F20C01C4F20201C86FC0F307
:101F20008110032820D0022814D0012824D151F890
:101F3000040C00F00C0242F200400C2AC0F2F40043
:101F40002CD0082A18BF704741F20020C0F27A0056
:101F5000704700BF51F80C0C42F200414005C0F23E
:101F6000F40101EAE0707047D1F884004FF40041B9
:101F700001EA8030704700BF51F8040C00F00C02F9
:101F800042F200400C2AC0F2F40027D0082A44D1C3
:101F900041F20020C0F27A003FE000BF0A68034629
:101FA00002F00302032A04BF41F20023C0F27A03C5
:101FB000022A0A6808BF0346C2F306200A680968B5
:101FC000C2F3031258430132B0FBF2F0C1F3416196
:101FD000022202EB4101B0FBF1F070470A680346B0
:101FE00002F00302032A04BF41F20023C0F27A0385
:101FF000022A0A6808BF0346C2F306200A6858434B
:10200000C2F303120B680132B0FBF2F0C3F341627A
:10201000022303EB4202B0FBF2F051F8042C47F22A
:10202000FC43C2F30312C0F6000351F8041C9A5C8F
:1020300047F20C53C1F30221C0F60003595C02F0D1
:102040001F02D04001F01F01C8407047302843D024
:102050000C2827D003281CBF0020704741F20C0138
:10206000C4F20201C86F4FF4404262F39F00B0F126
:10207000031F5BD00222C0F2030290424CD0012227
:10208000C0F20302904259D151F8040C00F00C0246
:1020900042F200400C2AC0F2F40061D0082A35D088
:1020A000704700BF41F20C01C4F20201C86FC0F3D7
:1020B000810003283AD002282ED0012870D151F88F
:1020C000040C00F00C0242F200400C2AC0F2F400B2
:1020D00046D0082A1AD0E3E741F20C01C4F202010B
:1020E000C86FC0F30110032820D0022814D00128A3
:1020F00068D151F8040C00F00C0242F200400C2AA6
:10210000C0F2F4002CD0082A18BF704741F200201A
:10211000C0F27A00704700BF51F80C0C42F2004147
:102120004005C0F2F40101EAE0707047D1F8840084
:102130004FF4004101EA8030704700BF51F8040CB1
:1021400000F00C0242F200400C2AC0F2F4004BD026
:10215000082A68D141F20020C0F27A0063E000BF93
:102160000A68034602F00302032A04BF41F2002377
:10217000C0F27A03022A0A6808BF0346C2F30620A7
:102180000A680968C2F3031258430132B0FBF2F047
:10219000C1F34161022202EB4101B0FBF1F0704753
:1021A00051F8040C00F00C0242F200400C2AC0F27C
:1021B000F40049D0082A66D141F20020C0F27A002A
:1021C00061E000BF51F8040C00F00C0242F2004044
:1021D0000C2AC0F2F4006FD0082A40F08C8041F243
:1021E0000020C0F27A0086E00A68034602F003028B
:1021F000032A04BF41F20023C0F27A03022A0A68CC
:1022000008BF0346C2F306200A685843C2F303120C
:102210000B680132B0FBF2F0C3F34162022303EB1F
:102220004202B0FBF2F051F8042C47F2FC43C2F337
:102230000312C0F600039A5C51F8041C02F01F025E
:10224000C1F3C2212EE000BF0A68034602F0030278
:10225000032A04BF41F20023C0F27A03022A0A686B
:1022600008BF0346C2F306200A685843C2F30312AC
:102270000B680132B0FBF2F0C3F34162022303EBBF
:102280004202B0FBF2F051F8042C47F2FC43C2F3D7
:102290000312C0F600039A5C51F8041C02F01F02FE
:1022A000C1F3022147F20C53C0F60003595CD04041
:1022B00001F01F01C84070470A68034602F003029C
:1022C000032A04BF41F20023C0F27A03022A0A68FB
:1022D00008BF0346C2F306200A685843C2F303123C
:1022E0000B680132B0FBF2F0C3F34162022303EB4F
:1022F0004202B0FBF2F051F8042C47F2FC43C2F367
:102300000312C0F6000351F8041C9A5C47F20C5308
:10231000C1F30221C0F60003595C02F01F02D04055
:1023200001F01F01C840704740F2A831C2F200011D
:102330000860704770B58B6848F2FF348446087BAC
:10234000CEF6F074D1E900E22340184304F580632F
:102350001A40104304F54062CB8902EA0E02104392
:1023600023F4C042D1E9043E04F5705633401843CB
:102370001043CA6A04F5F8438D691A402EF0805361
:102380001A4343F200432A43C4F201039C4542EA44
:10239000000305D042F60040C4F20100844513D189
:1023A0004FF6FF70CDF60F4001F11C0618404CCEE1
:1023B00026F00C56304322F00852896A104323F06D
:1023C0000052104340EA01030020CCF8443070BDB5
:1023D00040F2FF7C02460068C4F2000C624521DD39
:1023E00040F60003C4F200039A4224D043F20043B3
:1023F000C4F201039A421ED042F60043C4F2010324
:102400009A4218D043F2FF33C4F201039A421CDC13
:10241000624529DCB2F1804F3CD040F20043C4F267
:10242000000335E0B2F1804F05D040F20043C4F222
:1024300000039A42E6D14B6820F07000184343F243
:10244000FF33C4F201039A42E2DD44F2FF33C4F2E7
:1024500001039A4212DC43F20043C4F201039A42A0
:1024600018D044F2000311E040F60003C4F2000368
:102470009A420FD042F6004308E000BF44F6000342
:10248000C4F201039A4205D044F20043C4F20103AE
:102490009A4203D1CB6820F44070184310608868DA
:1024A000D062A2F18040A0F596300B884FEAB020B0
:1024B0000728936207D8012303FA00F010F0E50F14
:1024C0001CBF08691063506940F001010020516190
:1024D000704700002DE9F041B1F5805F4FF0010336
:1024E00054DA012900F09680102900F0D980B1F566
:1024F000807F40F0A481016A40F2FF1621F48071D0
:102500000162036A4168D0F81CC0146923F4407367
:102510002402B4432343A0F18044D2E900E5A4F5AA
:1025200096344FEAB424072C43EA05231CD801252E
:1025300005FA04F414F0E50F16D002F1140898E837
:10254000600140F2FF77AD0223F440639468BD431D
:102550002B4343EA8423340142F20F0521F4405116
:10256000AC43214341EA48114FF68C74CFF6FE7418
:102570000CEA040747EA0E074160C761D168C163EE
:10258000036200231846BDE8F08100BF00F0D2804E
:10259000B1F5803F00F01881B1F5801F40F04F8108
:1025A000016AA0F1804521F480110162A5F59635FC
:1025B000016A036DD2E900EC14694FEAB525072DD5
:1025C0000DD8012606FA05F515F0E50F1FBF456881
:1025D000966925F4802545EA862518BF45600025C3
:1025E000CFF6E07521F4401105EA0454214348F682
:1025F000FF44CFF6FF6404F54074234043EA0E2302
:102600000365D26841EA0C51C26401620023184696
:10261000BDE8F081016A21F001010162036A4168AD
:10262000D0F818C0146923F0030324F001042343F5
:10263000A0F18044D2E900E5A4F596344FEAB42431
:10264000072C43EA05031AD8012505FA04F414F00F
:10265000E50F14D002F1140898E860016FF0040748
:1026600023F00C03946807EA85052B4343EA8403AF
:1026700021F4407126F40074214341EA48014FF6E9
:102680008C74CFF6FE740CEA040747EA0E0741602B
:102690008761D1684163036200231846BDE8F08179
:1026A000016A6FF0100621F010010162036A4168AF
:1026B000D0F818C0146923F0300306EA0414234349
:1026C000A0F18044D2E900E5A4F596344FEAB424A1
:1026D000072C43EA05131CD8012505FA04F414F06D
:1026E000E50F16D002F1140898E860016FF040077A
:1026F00023F0C003946807EA85152B4343EA84134B
:10270000B40040F6030521F44061AC43214341EAA3
:10271000C80148F6FF44CFF6FF640CEA040747EA15
:102720000E2741608761D1688163036200231846E8
:10273000BDE8F081016A41F6FF7621F48051016223
:10274000036A4168D0F81CC0146923F44053240381
:10275000B4432343A0F18044D2E900E5A4F59634C4
:102760004FEAB424072C43EA05331CD8012505FAA7
:1027700004F414F0E50F16D002F1140898E8600193
:1027800047F6FF77AD0323F440439468BD432B43E2
:1027900043EA8433B40148F23F0521F44041AC439D
:1027A000214341EAC81148F6FF44CFF6FF640CEA22
:1027B000040747EA0E274160C761D16801640362DC
:1027C00000231846BDE8F081016AA0F1804521F49C
:1027D00080310162A5F59635036AD0F850C0D2E980
:1027E00000E114694FEAB525072D0DD8012606FA38
:1027F00005F515F0E50F1FBF4568966925F480358E
:1028000045EA062518BF45600025CFF6E07505F5B9
:10281000F01523F4403305EA0444234343EA01411D
:102820004FF68C73CFF6FE73033303EA0C0343EACF
:102830000E030365D268836C00238264016218462C
:10284000BDE8F08170B504460068C0071CBF0120D8
:1028500070BD0E46206846F6F311CEF6FF710840B3
:10286000D6E9021CD6E904320843F569184310433F
:1028700028432060606820F4405040EA0C0060600B
:10288000B069A16821F440710843A06044F6FF30AC
:10289000C4F2000084424FF0010011DC44F2004118
:1028A000C4F200018C421DD044F60001C4F20001C4
:1028B0008C4246D13020FFF7C9FBB8B935E000BFE4
:1028C00044F60041C4F200018C4229D043F60001D5
:1028D000C4F201018C4234D10320FFF7B7FB28B9C1
:1028E00023E000BF0C20FFF7B1FBF0B17168F9B134
:1028F00032680B2A24D816A353F82220F369B0FBC0
:10290000F2F0B3F5004F15D1400000EB5100B0FBE1
:10291000F1F04FF6F0710140C0F3420008440EE0C0
:10292000C020FFF7F3FA0028E0D1012009E000BF42
:10293000012006E000EB5100B0FBF1F080B2E06056
:1029400000203188E26A22F00F021143E16270BD7B
:10295000010000000200000004000000060000006A
:10296000080000000A0000000C0000001000000039
:102970002000000040000000800000000001000076
:1029800010B5044690F82000012818BF10BD207B28
:10299000012811D1D4E9000100220A71032102F0BB
:1029A000E5FD2068B4F90E10228B02F053FD18B13A
:1029B000022084F8200010BD032084F8200010BD00
:1029C000B0F90E304B43002B47BF0523837601231C
:1029D0000373C18140F2013102830184704700001A
:1029E00010B5044600F04EF80B281CBF002010BDA7
:1029F000204600F021F800284FF0000018BF10BD5D
:102A0000E0830220A076012010BD0000838B0B43E1
:102A100023EA0202C38B82831943C18370470000FB
:102A20000068002814BF4069002002F093BC000039
:102A300090F8210070470000808B70474068008844
:102A400070470000C18B808B41EA00407047000056
:102A5000017B01291CBF01207047B0F90E104FF017
:102A6000FF30B1F1FF3FC8BF01207047008B7047B6
:102A7000B0F90E0070470000006802F04DBD000084
:102A8000C08B7047C07E704710B50446FFF7FAFF51
:102A900038B92046FFF7F4FF18B92046FFF7CCFFFE
:102AA00010B1002010BD00BF0120A07684F82000E6
:102AB00010BD0000B0B50446FFF7E4FF4FF001057C
:102AC00010B10C2818BF00252046FFF7D9FF38B9F0
:102AD0002046FFF7B1FF002818BF0120284301D08E
:102AE0000020B0BD0520A0760120B0BD0068002800
:102AF0001EBF0021C1608161704700002DE9F047D1
:102B0000B1F800808146B8F1000F19D0D9F8000063
:102B1000C08980453ED8887899F81E3089F8210010
:102B2000C87889F823000A7989F825204A79171886
:102B30009F4289F8272023D90A252846BDE8F08737
:102B4000B9F81820002589F829506AB1D9F814106D
:102B500099F82A30D9F800008B52B9F81820476844
:102B6000023292B20923B8472846A9F8185089F8CA
:102B70002A5089F81F5089F82250BDE8F08700BF1D
:102B8000C24201F1060709D14FF0000A0AF106001E
:102B900040452FD909252846BDE8F08700260024A6
:102BA0004FF0000A16E000BF284601F0E3F9D9F81B
:102BB0000C1001348855D9F80C0099F82310805D69
:102BC00099F827205044E6B211440237B1421FFA67
:102BD00080FADBD9D9F804003D8800EB860128464D
:102BE00001F0D8F999F82300E1B28142DCD2022049
:102BF000DDE700BFA8EB0A000238A9F81A00387810
:102C0000002589F8290018B12846BDE8F08700BFE3
:102C1000B9F8182089F829506AB1D9F8141099F830
:102C20002A30D9F800008B52B9F8182047680232D0
:102C300092B20923B8470025A9F8185089F82A50FC
:102C400089F81F5089F822502846BDE8F087000017
:102C50002DE9F04F81B08246C07F9AF82210884259
:102C600066D1554635F8182F0020002AE87144D166
:102C7000514651F8140B092203689847D8B340F223
:102C80007851C2F20001DAF8140009689AF82A2093
:102C900001609AF829000421AAF8181090424FF018
:102CA00000018AF8201026D08AF82A009AF821001C
:102CB0009AF823208AF822009AF825009AF82730FB
:102CC0008AF82600BAF81A008AF82420AAF81C000C
:102CD000DAE901101A4492008AF82830FDF751FB16
:102CE0009AF823209AF82730DAF80C10DAF8100056
:102CF0001A44FDF701FB2A88EAB1BAF81C008242A7
:102D000000F2B7809AF82490DAF81480B9F1000F35
:102D10005DD0DAF808E0A9F1010008EB020303280E
:102D200009F0030C0AD20026BCF1000F32D14EE0AC
:102D300001308AF81F0001B0BDE8F08F09F0FC0BEC
:102D4000AEF110070020002657F8102F083812881F
:102D50007C6823F816202A88B96802322A802288E3
:102D600003EB460462802A88043602322A800988EE
:102D7000FA68A1802988B34501F1020129801188F0
:102D8000E180298801F102022A80DDD11B1ABCF101
:102D9000000F1CD05EF82600BCF1010F00881880DF
:102DA000288800F102022A8011D00EEB86004168CB
:102DB000BCF1020F09885980298801F102022A809A
:102DC00005D08068008898802888821C2A809AF81C
:102DD0002600FD284DD89AF82010814246D19AF855
:102DE0002800002100288AF8201042D000EB090CAE
:102DF000DAF80860DAF81000494600BF56F8297082
:102E000094B23F6848F8047010F809703A444F1CB7
:102E1000FFB2BC452A802CD956F8274093B22468CB
:102E200048F80340C35D1A448B1CDFB2BC452A80BE
:102E30001FD956F8273094B21B6848F80430C35D98
:102E40001A44CB1CDFB2BC452A8012D956F8273071
:102E500094B21B68043148F80430C35D5FFA81F90D
:102E60001A44CC452A80C9D803E000BF481C8AF820
:102E70002000BAF81C0091B281427FF65CAF9AF84C
:102E80002600FE283CD19AF82800C8B39AF824609E
:102E9000DAF808E0DAE9043700EB060C344600BF44
:102EA0005EF8260091B200687850985D0244601C7C
:102EB000C6B2B4452A8023D95EF8260091B20068D4
:102EC0007850985D0244A01CC6B2B4452A8017D938
:102ED0005EF8260091B200687850985D0244E01CCC
:102EE000C6B2B4452A800BD95EF8260091B20068BC
:102EF00004347850985DE6B20244B4452A80CFD8B5
:102F0000DAF814109AF82A3092B28B52DAF80000EC
:102F1000BAF818204768023292B20923B847002055
:102F2000AAF8180001B0BDE8F08F0000F0B581B03C
:102F3000028B002A4ED0044690F82600FE283BD192
:102F400094F82800C0B394F82450D4F808E000EBBB
:102F5000050CD4E9043029465EF8256097B236683E
:102F6000C6515D5D2A444D1CEDB2AC45228323D988
:102F70005EF8256097B23668C6515D5D2A448D1CA7
:102F8000EDB2AC45228317D95EF8256097B236685A
:102F9000C6515D5D2A44CD1CEDB2AC4522830BD9F0
:102FA0005EF8256097B236680431C6515D5D2A44EB
:102FB000CDB2AC452283CFD8616994F82A3092B261
:102FC0008B522068228B4768023292B20923B8479D
:102FD0000020208301B0F0BD2DE9F04F83B046689A
:102FE000824636F8022B036822F0FF000021B0F57C
:102FF000807F08BFC2F3C401BAF80C5018BF22F09A
:1030000007009B890027023DD1460FFA85FBA3F1FB
:10301000010829F80E7F38284FF00207AAF80C5053
:10302000CAF8046000F25080511E01F0070140F21E
:10303000641241EAC101C2F2000202EB8105DFE83D
:1030400010F0390027012701270127012701270157
:1030500027015F00270127012701270127012701F9
:103060002701B30027012701270127012701270195
:103070002701E70027012701270127012701270151
:103080002701ED002701270127012701270127013B
:103090002701F30027012701270127012701270125
:1030A0002701FD002701270127012701270127010B
:1030B000270107010420AAF80E00DAF80800012110
:1030C00001700027E4E000BFB0F5807F40F0E080B1
:1030D000012900F2CB8041F29860C2F2000050F862
:1030E0002170002F00F0C880DAF808501FFA8BF02A
:1030F0000FFA88F231464B460095B8470746C7E0BD
:10310000DAF808300020BBF1010FADF80800AAF88A
:103110000E00C0F2BA800024002700BF36F8021B60
:1031200001F00700012800F2A98047F2F442C0F63E
:10313000000252F820C0ABF1020501930FFA85FEA0
:1031400021F0070001F03801324602ABCDF800E073
:10315000E047BDF808102306A5EB01020FFA82FB39
:1031600008BFBBF1000F00F08B805FEA084200F05F
:103170009D80019B00281870B9F8002018BF012716
:1031800001320728A9F8002000F07B800A2800F00F
:10319000788001340E44A8F10108BBF1000F03F15F
:1031A0000103BBDC6DE000BFDAF808500020BBF182
:1031B000000FADF80A00AAF80E004FD036F8021B37
:1031C00001F00700012853D847F2EC42C0F6000294
:1031D00052F820700FFA88F421F0070001F038014E
:1031E0002A460DF10A030094B847002842D1BDF8E1
:1031F0000A00B9F80010ABF1020B01440544A9F82C
:1032000000105FEA0B41A8EB0008D7D100273FE090
:103210002846FFF739FC80F0010739E02846FFF720
:1032200049FC002734E000BF2846FFF72BFC0628A6
:1032300004BF2846FFF75AFC002729E02846FFF77D
:1032400021FC68B12846FFF735FC002720E000BFCD
:103250002846FFF7C5FB00271AE000BF012717E04B
:103260002846FFF711FC80F0010711E00D270FE061
:1032700001270DE007460BE00D2709E0012707E0D5
:10328000074638064FF0000002D1A9F800000027D9
:10329000DAF80800BAF80E104754BAF80E000130F8
:1032A000AAF80E0003B0BDE8F08F00BF0827EFE7D3
:1032B00080B540F2F010C2F2000000F069FD40F26B
:1032C0005030C2F20000BDE8804001F0DDBF0000D8
:1032D00080B540F2F010C2F2000000F041FC01465F
:1032E00040F25030C2F20000BDE8804001F0D8BF8B
:1032F00041F23C70C2F200000068FFF7C3BB00005F
:10330000B0B540F22055C2F200052878002808BF69
:10331000B0BD688880B101386880A88810B1A888DD
:103320000138A880E88810B1E8880138E880BDE855
:10333000B04002F0F3BC00BF02F036FBFFF7C8FF5D
:1033400040F25414C2F20004206804F10C018268B7
:103350009047606080B1214651F8080B0A2203684B
:10336000984748B12046FFF737FE2068A168D0F89B
:1033700004C0E2890A23E04701206880A888002869
:10338000CDD1CFE741F23C70C2F200000068FFF7F8
:103390007BBB000041F23C70C2F200000068FFF706
:1033A00089BB0000002808BF7047B0B540F2205527
:1033B0000446C2F200050020287001F027FF40F209
:1033C0003440C2F20000FDF73FFD40F28C10C2F223
:1033D000000000F0B7F840F2FC30C2F2000002F04A
:1033E000CBFF40F2EC30C2F2000000F0D1FC40F222
:1033F0000C10C2F2000001F09FFE40F2AC30C2F2AD
:10340000000000F0C5FC40F2BC30C2F2000000F049
:1034100059F840F26410C2F200002060FFF748FF44
:1034200001202870BDE8B0407047000080B5FEF76D
:1034300081FB44F6D351C1F26201A0FB0101C8092E
:10344000FEF780FB40F20000C2F2000001684FF07E
:10345000FF300022FEF728FB41F23C70C2F2000070
:10346000FFF7A0FFBDE8804003F06ABD10B5044639
:10347000007818B10020208110BD00BF4FF6FF700A
:10348000814207D060896288431E03FB0211B1FBB1
:10349000F0F06080204600F027F8208110BD000089
:1034A000017819B1C08800B2704700BF41884269F5
:1034B000891AB0F91020008B514300EB214000B273
:1034C00070470000017829B1818800220281418083
:1034D000704700BFB0F910200021012AB8BF4FF09B
:1034E000FF31418070470000B0F910304188828977
:1034F000012B09DB914284BF08207047C2899142A9
:1035000034BF00200089704791423CBF08207047BB
:10351000C28991428CBF002000897047B0F9220017
:1035200070470000C08C7047B0F90600704700007B
:10353000408B7047C08B7047B0F9040070470000A3
:10354000808B7047018C026841840021C0E9012111
:103550008162704781607047418470470122C18455
:1035600002FA01F181847047C1807047B0B5054609
:1035700001208840688347F6FF700C46E98300FA13
:1035800001F1284600F016F848F20100CFF6FF706E
:1035900000FA04F12846BDE8B04000F009B8000088
:1035A000818070470122818302FA01F10183704713
:1035B00001617047C1607047B0B50246B0F9043090
:1035C000B0F90600B2F91440B2F916C003FB01FECF
:1035D00080B1956800FB01534843B3F1FF3F0BDD19
:1035E000284044BF0123C8F200031946D36899421A
:1035F0000DDD11E000230FE01946002DC8BF6FF06C
:1036000000410028D8BF1946D368994204DC1069EC
:103610008142B8BF01460B46908BD18B4EFA00F029
:1036200043FA01F10844A04204DD211A194420B2F2
:103630009160B0BDBCEB0001D4BF002160460446E0
:10364000194420B29160B0BD10B5417A044619B159
:1036500020684900FCF7C7FE00206060A07220735C
:1036600010BD000010B50446007A01218140080613
:10367000617206D020684FF4FF7202EA4101FCF744
:10368000B2FE00206060A072207310BD80B5827A07
:10369000D0E9003C33F812E023F81210ACEB0E0C2A
:1036A00061444160511C427ACBB29342817218BF8F
:1036B00080BD002181720121017380BDC169012299
:1036C00009680275C8686FF0010220F00100C86047
:1036D00000200A617047000042F60C40C4F201006D
:1036E000016821F001010160704700000146B0F956
:1036F000120041F25552821A92B242F6AA239A421D
:1037000002D2002222E000BF43F6FF72821A92B278
:1037100042F6AB239A4201D2012217E046F6AA22D2
:10372000024492B24DF253539A4201D902220DE063
:1037300010F5804F02DC032208E000BF4EF6AB23F9
:10374000CFF6FF7305229842B8BF0422C87A101A38
:1037500018BF01208A727047827A012906DB511C4A
:10376000CAB2063A18BF0A4682727047511E002A32
:1037700008BF05218172704790F80CC0427B837BA3
:10378000C17B4CEA420242EA830242EAC101027C66
:10379000407C41EA021141EA4010C0B2704700008B
:1037A000407E7047C1696FF080030968D0F82CC073
:1037B0000B61CB684FF68F7243F08003CB606FF0E4
:1037C00001030B614B68CFF6FF521A404A600A6A48
:1037D00040F255531A430A620022C275C0F8122003
:1037E0000A6842F001020A600CF17C010CF19402BB
:1037F000C0E90912704700000146407D00284FF0E3
:1038000000001CBF487502200A7D002A1EBF403000
:1038100000220A75CA7D002A1EBF00F580600022C2
:10382000CA75704770B5D0F81CE00189DEF80060F9
:1038300041B3C46A4FF6FF7504F11C0204F134036E
:10384000A94204BF04F14C0204F16403C0E9092356
:1038500054F8181F0462316290F83010022975D1B3
:10386000DEF81450BEF81840DEF804C0DEF80C1084
:10387000AC61BEF80840CCF81840BEF810508D611D
:1038800064E000BF417EC36A61B190F80AC0DC33D6
:1038900053F82C100362316290F83010022917D0CF
:1038A0004FE000BF90F80AC0036200EB0C01097BF7
:1038B000012919BF03F17C0103F1940203F1AC016A
:1038C00003F1C4024162826290F83010022938D1BB
:1038D000BCF1050F35D8012101FA0CF111F0090FE7
:1038E00010D111F0120F1DD0BEF81010DEF80C40F0
:1038F000DEF80420DEF81450A162BEF808109161D1
:103900001CE000BFDEF81420BEF81840DEF80410FA
:10391000DEF80C509462BEF808208A61BEF81010E0
:103920000EE000BFBEF80810DEF80420DEF80C4000
:10393000DEF814509162BEF81010A161BEF81810A4
:10394000A96153F82C103162D0E90923817A52F829
:103950002120B26153F82120F261C172706940F0F8
:1039600020007061706940F00100706170BD00005E
:10397000C26981801268116470470000018170473C
:10398000C1F340124274C1F300120274C1F3C002C9
:10399000C273C1F380028273C1F3400201F00101DE
:1039A0004273017370470000018042F63440C4F254
:1039B0000100016041608160704700000139B1FA87
:1039C00081F1490941767047B0B5C36990F830205C
:1039D00019684FF0000C022A80F818C00AD1B3F819
:1039E00008E05A68DC685D69C2F828E01A8AA262B9
:1039F0001A8BAA624A6C22F400424A64C1F834C0AD
:103A0000C1F838C0C1F83CC0A0F800C0C8684FF683
:103A10008F7220F00100C8604868CFF6FF52104056
:103A20004860B0BDC1690022096806230276C372EE
:103A3000C86840F00100C860486840F00100486074
:103A4000486820F0040048604A638A63CA63486992
:103A50004FF68F7240F020004861486CCFF6FF525D
:103A600040F480604864486C40F400404864486812
:103A70001040703048607047C16901230A680376BE
:103A80006FF001031361002353639363D36344F620
:103A90004803936146F64803D36141F21113136260
:103AA000536943F001035361536943F020035361A9
:103AB000536C43F40043536490F83000022818BF5D
:103AC000704708894A68CB68D1F814C09061088AA9
:103AD0009861088BCCF818007047000080B540F260
:103AE0002851C2F200010A7802EB420001EB4000CB
:103AF000037E002B08BF80BD01EB82018A6804238E
:103B000011680B60137901224FEA836C092B02FACA
:103B100003F207D842EA0C0203EB430342EA0352E2
:103B20000CE000BF03EB430E0023CFF6206303EB52
:103B30000E5342EA0C021A4342F000720B6B920ED3
:103B400062F38A130B630A6C8A684FF6C073C7F678
:103B5000FF731A4004328A600121417680BD000063
:103B60002DE9F041007B40F2285C00EB4002C2F2FC
:103B7000000C0CEB42010B4613F8187F002F4DD1BF
:103B8000674617F8184F07EB420505F1050E002CA4
:103B900005F104040AD0664616F81D7F0025874209
:103BA00021D89CF81E602EB90AE000BF04259CF8BD
:103BB0001E602EB1664616F8237F0125874212D873
:103BC0009CF824602EB1664616F8297F02258742AC
:103BD00009D89CF82A60002E6ED0664616F82F7F12
:103BE0000325874268D98EF8007007EB47070CEB76
:103BF0004707257030703877674617F8186B00252F
:103C000007EB4202557006EB460207EB4202527880
:103C10000127012A1F7018BF8CF8000040F20C0227
:103C2000C2F2000292F8542012B1488BBDE8F08134
:103C30000CEB800080680127037900689A06092B45
:103C400007FA03F706D83A4303EB430342EA035269
:103C50000BE000BF002603EB4303CFF6206606EB24
:103C600003533A431A4342F00072036B920E62F31D
:103C70008A130363026C82684FF6C073C7F6FF7342
:103C80001A40043282600268520709D4026852075F
:103C90005CBF02685FEA427202D402685207F2D542
:103CA000006C4FF6F07210404A7F48838CF8002079
:103CB00002224A76BDE8F081042D03D18CF8000081
:103CC0009AE700BF05EB45060CF1180808EB46061D
:103CD000777925708EF8007007EB470708EB4707E8
:103CE0007071387188E7000070B540F22855C2F253
:103CF00000056C68002C08BF70BD6878012819D1D8
:103D0000267B2046FFF72CFF06EB460105EB410121
:103D10004A7E0146002A68801CBF0220687005EBBD
:103D2000C600036B33B10026426B20466E70BDE8BF
:103D30007040184770BD000080B540F22850C2F2B4
:103D40000000027802EB420100EB41010B7E002BE8
:103D500008BF80BD00EB820293680A46D3F800E0FA
:103D600012F8193FDEF800C0022B04D0002B18BF58
:103D70001CF0040302D1497F017080BDDEF84030A1
:103D800023F00F034B8302231370497F017080BD22
:103D900070B540F2285CC2F2000CDCF80820002A62
:103DA000114618BF4FF0FF3109D0117903799942BC
:103DB00004D111680268914200F0D680FF21DCF83E
:103DC0000C20CCB2002A0B4608BF0123042C98BF5C
:103DD0000B466AB113790679B3420AD112680368B7
:103DE0009A4206D10121CAB2032A00F2BA8038E011
:103DF0001946DCF81020CEB2002A0B4608BF022379
:103E0000042E98BF0B466AB113790679B3420AD1E2
:103E1000126803689A4206D10221CAB2032A00F24C
:103E2000A0801EE01946DCF81420CEB2002A0B4612
:103E300008BF0323042E98BF0B466AB11379067995
:103E4000B3420AD1126803689A4208BF0321CAB27A
:103E5000032A00F2868004E01946CAB2032A00F25F
:103E600080800CEB820398600CEBC2044FF0000ED4
:103E70000368C4F830E09C68E40747D15C6824F02C
:103E800004045C6004241C605D684FF6C07425F077
:103E900020055D6020251D60C7F6FF749D6804F154
:103EA0004046354005F100459D6000BF9D68002DEE
:103EB00029D59D68B5F1FF3F25DC9D68B5F1FF3F31
:103EC00021DC9D68002DF1D41DE000BF9D682540D8
:103ED00045F001059D601D68ED0717D19D682540DF
:103EE00045F001059D601D68ED070FD19D682540D7
:103EF00045F001059D601D68ED0707D19D682540CF
:103F000045F001059D601D68ED07DFD002EB420220
:103F10000CEB420282F818E0517711771A6B0024FB
:103F200022F00F021A630279012602EB4205CFF656
:103F30002064964004EB0554344344F000740A2A8C
:103F400038BF46EA0554C4F3406603EB8603826833
:103F50005E69C4F304550724AC40A643AA4032432B
:103F60005A61017370BD00BF0021CAB2032AF8D89C
:103F700077E7000000F03800082804BF01207047F0
:103F8000182804BF04207047102814BF0020022006
:103F90007047000020F0070040F2641241F2A06375
:103FA00041F6902CC2F20002C2F200036045526852
:103FB00008BF1346B0EB0C0018BF05200B6070471C
:103FC00070B508394FEAF105042D0DD80146049863
:103FD000DFE805F0040C1A22680000BF012819DB95
:103FE00001201880052070BD072070BD022811DB5C
:103FF000B1F5656F4FF0000003D0B1F5696F18BFE0
:1040000005200221198070BD042803DB04201880DC
:10401000052070BD082070BD602955D0202940F0D2
:104020008D8047F26B6CC0F6000C9CF800400121BB
:10403000002C198000F0A380012500211FFA80FECA
:10404000A8B2704580F08E80501804700CEB01040B
:104050001E8865780136002D1E8000F08580B6B27E
:10406000764580F07F8045701E88A5780136002D4A
:104070001E807BD0B6B2764574D285701E88E578F6
:104080000136002D1E8077D0B6B276456AD2C57053
:1040900018882479451C002C01F104011D80CFD122
:1040A0000A446CE0282909D180B20A210C28118029
:1040B00048D208200C21198070BD00BF1088811CD7
:1040C0000520198070BD00BF47F25E6CC0F6000C81
:1040D0009CF800400121002C198050D001250021BE
:1040E0001FFA80FEA8B270453CD2501804700CEB49
:1040F00001041E88657801361E80CDB3B6B27645C0
:1041000030D245701E88A57801361E8095B3B6B2B0
:10411000764527D285701E88E57801361E806DB3FE
:10412000B6B276451ED2C57018882479451C002C7D
:1041300001F104011D80D5D10A4420E0002018803F
:10414000052070BD47F21070C0F6000001890232F0
:104150001181416800685160106000200C211980B5
:1041600070BD00BF062070BD421C08E0821C06E046
:10417000421C04E0821C02E0C21C00E0C21C0020C1
:10418000107070BD000000002DE9F04F8FB00839AD
:104190001C464FEAF103042B22D801461546189A13
:1041A000DFE803F00422445AA60000BF012A4FDBD7
:1041B000C7294FF0050040F3C581C82900F0568299
:1041C000B1F5D96F00F05A82B1F5E16F40F0668227
:1041D00040F2B810C2F20000FFF7E2FA5CE200BF62
:1041E00007200FB0BDE8F08F022A31DBB1F5656F13
:1041F000C0F2B68141F28F40814200F3CB81B1F52C
:10420000656F4FF0000000F00F83B1F5696F00F0AB
:104210000B8341F25040814240F00C8340F28C10FD
:10422000C2F20000FFF78CF9FCE200BF042A0FDBAA
:10423000982900F0C581582900F0CA81182940F05A
:10424000D78140F26410C2F20000FEF7FBFBC8E128
:1042500008200FB0BDE8F08FE02900F08980A02988
:1042600040F0D08040F2EC10C2F20000D0F800C064
:10427000012020809CF80070002F00F0F6820123BE
:10428000002192B298B2904280F080816B181F702A
:1042900020880CEB0107013020807E78002E00F092
:1042A000CF8280B2904280F071815E7020880130B0
:1042B0002080BE78002E00F0C58280B2904280F04F
:1042C00065819E70208801302080FE78002E00F0ED
:1042D000C98280B2904280F05981DE70208804311A
:1042E000431C23803F79002FCCD10D44BDE200BF99
:1042F000B1F5947F05F1020024DBB1F50A7F80F26D
:104300008780B1F5947F00F07981B1F5D47F40F0DA
:10431000A58140F26416C2F200063046FEF7A8FB03
:1043200000EB40004000C5F802003046FEF79EFB5F
:10433000E880062028800020082121800FB0BDE8F9
:10434000F08F00BF682900F06581A82900F06E8118
:10435000E82940F0838192B20B210D2A298080F058
:10436000B18108200D2121800FB0BDE8F08F00BF82
:1043700040F28810C2F20000D0F800C00120208076
:104380009CF82470002F00F070820123002192B26B
:1043900098B2904280F0FA806B181F7020880CEB66
:1043A00001070130208097F82560002E00F04C8234
:1043B00080B2904280F0EA805E70208801302080D8
:1043C00097F82660002E00F04B8280B2904280F079
:1043D000DD809E7020880130208097F82760002EB5
:1043E00000F0428280B2904280F0D080DE7020885F
:1043F0000431431C238097F82870002FC8D10D4446
:1044000033E200BF0020208005200FB0BDE8F08F10
:1044100000F01881B1F5FD6F40F0208105A80DF185
:10442000160107AA029040F20C000DF11207CDE927
:104430000021C2F200000BA90DF11A0206AB03978E
:10444000FCF76AFEBDF836006423584344F288271F
:104450004009C0F27217A0FB0701BDF83800BDF893
:104460002E2058434009A0FB0703BDF82C006A80AA
:10447000A880481CBDF830202881BDF81A00591CBE
:10448000EA80698102F071FE9FEDF10B58EC109B00
:104490004A46434602F0F4FE9FEDEF0B06465BEC06
:1044A00010AB52465B460F4602F0F6FF002804BFF1
:1044B0005F4656463046394602F028FEBDF81810D1
:1044C000A881084602F051FE4A46434602F0D8FE53
:1044D00052465B4606460F4602F0DEFF002804BF48
:1044E0005F4656463046394602F010FEBDF81610BB
:1044F0006427794344F288234909C0F27213A1FB6F
:104500000312BDF81410E88179434909A1FB031394
:104510000A98BDF81C10288201EB41004000688217
:10452000501CA882581CE8829DF83A00BDF8121071
:1045300028831A206983288000201C2121800FB045
:10454000BDE8F08F482900F0A180882940F0A680BE
:1045500040F26410C2F20000FEF76AFA9CE000BF6D
:10456000B1F5887FC0F2A08000F03681B1F5B26F5E
:1045700000F03A81B1F5BA6F40F05C8140F2BC3096
:10458000C2F20000FEF78CFF4CE100BF06200FB026
:10459000BDE8F08F41F29040814200F02D8141F260
:1045A000D040814200F0308141F69020814240F0BD
:1045B000418140F26410C2F20000FEF73FFA31E19F
:1045C00040F26410C2F20000FEF756FA06E000BFA7
:1045D00040F26410C2F20000FEF722FA00EB400045
:1045E000400028600020042121800FB0BDE8F08F3A
:1045F0000520042121800FB0BDE8F08F92B20C217C
:104600000E2A298072D208200E2121800FB0BDE829
:10461000F08F00BF92B23C213E2A298078D2082038
:104620003E2121800FB0BDE8F08F00BF92B2102173
:10463000122A29807AD20820122121800FB0BDE8E9
:10464000F08F00BF91B228202A29288080F0828034
:1046500008202A2121800FB0BDE8F08F2888811C16
:10466000052021800FB0BDE8F08F00BF40F2002090
:10467000C2F2000090F84A000EE000BF40F2B8100D
:10468000C2F20000FFF778F806E000BF40F26410C5
:10469000C2F20000FEF7F6F9287000200121218007
:1046A0000FB0BDE8F08F00BF902900F0B580D02991
:1046B00040F0C08040F28C10C2F20000FEF734FFE0
:1046C000B0E000BF40F24C31C2F2000109680A6854
:1046D000D1F807304968C0F8073041600260002017
:1046E0000D2121800FB0BDE8F08F00BF40F2AC413A
:1046F000C2F200010A684B68CF688968C7608160B0
:104700004360026000200E2121800FB0BDE8F08FD1
:1047100040F28811C2F2000109683C22FBF7ECFD6F
:1047200000203E2121800FB0BDE8F08F40F208014B
:10473000C2F2000109680A684B68CF688968C760DF
:104740008160436002600020122121800FB0BDE82B
:10475000F08F00BF40F20020C2F20000B0F90E203E
:10476000018A838902EB42025200C5F80220E980E7
:104770002B81B0F91A20818B038B02EB420252008D
:10478000C5F80A20E9812B82B0F92620018D838C9F
:1047900002EB42025200C5F81220E9822B83B0F9E5
:1047A0003220818E038E02EB42025200C5F81A209D
:1047B000E9832B84B0F93E20B0F84010808F02EBE3
:1047C00042025200C5F82220E984288500202A21CF
:1047D00021800FB0BDE8F08F40F28C10C2F20000D3
:1047E000FEF79CFE1EE000BF40F20C10C2F200007B
:1047F00001F010FD16E000BF40F28C10C2F2000084
:10480000FEF798FE0EE000BF40F28C10C2F20000EE
:10481000FEF788FE06E000BF40F28C10C2F20000F6
:10482000FEF78AFE28800020022121800FB0BDE81B
:10483000F08F00BF0520022121800FB0BDE8F08F6E
:104840005D1C12E09D1C10E05D1C0EE000BF00BF6F
:10485000B81E85EB51B8BE3F000000000000F03FDD
:104860009D1C02E0DD1C00E0DD1C002028700FB064
:10487000BDE8F08F80B508394FEAF10104290FD85F
:104880008646DDF808C0DFE801F0030F1F27590056
:1048900005200121BEF1480F08BF0420198080BD0A
:1048A00000201880072080BDBEF5656F5CDBBEF57B
:1048B000656F4FF000005ED0BEF5696F5BD041F6CA
:1048C0005830864556D05BE005200421BEF1180F14
:1048D00008BF0420198080BD0120188011780029AC
:1048E00057D001201FFA8CFC80B2604546D211706F
:1048F0001888411C19805078002845D089B261453C
:104900003CD250701888411C1980907800283DD006
:1049100089B2614532D290701888411C1980D078D4
:10492000B0B389B2614529D2D0701888013018809F
:1049300012F8041F0029D7D12BE000BF10881FFAFE
:104940008CF2023081B29142188003D90020188085
:104950000A2080BDAEF128004FEAB01105200429DD
:1049600038BF042080BD00BFBEF5B26F02D0BEF5D7
:10497000BA6F05D104200221198080BD042080BDBA
:1049800005200221198080BD013202E0023200E0E0
:10499000033200201070042080BD00002DE9F0419A
:1049A00090B008394FEAF1011C46042914D8169E2C
:1049B000DFE801F0041A385E980000BFB0F5D96F47
:1049C00080F2A28048284FF0040500F09A81C828A0
:1049D00018BF052595E100BF002007252080284647
:1049E00010B0BDE8F08100BF1188B0F5696F4FF0DD
:1049F000000580F29980B0F5B26F80F2BD809028FA
:104A000000F08A81D02800F08F81B0F5887F40F0D7
:104A1000B18140F28C1009B2C2F20000FEF79CFD99
:104A200098E100BF18284FF0040600F0AF80582826
:104A30004FF0040500F0B180982840F0AD80B2F945
:104A400000004AF6AB21C2F6AA2150FB01F000EBB0
:104A5000D07001B240F26410C2F2000000220025C2
:104A6000FDF7AEFF2680284610B0BDE8F08100BFFC
:104A7000012020801178002900F075810123B0B257
:104A80009BB2834280F07181117021884B1C23807E
:104A90005178002900F03C819BB2834280F065810F
:104AA000517021884B1C23809178002900F03281BD
:104AB0009BB2834280F05981917021884B1C2380E6
:104AC000D178002900F04E819BB2834280F04D8165
:104AD000D17021884B1C238012F8041F0029CFD1EC
:104AE00041E100BF114631F802CBB6B20CF102052C
:104AF000ABB2B342258031D9002020800A25284658
:104B000010B0BDE8F08100BFB0F5E16F72D0B0F534
:104B1000D96F40F0F580117840F2B810C2F2000071
:104B2000FEF72EFF6DE000BF41F2CF42904239DC2C
:104B3000B0F5696F00F00F8141F25042904200F0F1
:104B4000FB8041F29042904240F0148140F28C1080
:104B5000C2F20000FEF70AFDFCE000BFB0F5D47F12
:104B600030DAA7284FF004054EDC28283FF437AF91
:104B700068283FF434AF21E122D0B0F5BA6F1FD0DE
:104B8000B0F5656F18BF0525E5E000BF0425268058
:104B9000284610B0BDE8F08105252680284610B0D3
:104BA000BDE8F08141F2D042904200F0CD8041F664
:104BB0009021884204D041F65831884240F0DA8092
:104BC0000425C8E0B0F5A56F28DAB0F5D47F00F071
:104BD000D380B0F50A7F40F0F1805FEA4C7004D1D9
:104BE000CCF3C400052840F2EF800A25284610B017
:104BF000BDE8F081117840F2B810C2F20000FEF773
:104C0000DDFE00257DE000BFA8283FF4E8AEE828DF
:104C100018BF0525284610B0BDE8F08100F0C4801B
:104C2000B0F5FD6F40F0CA8010894FF4B15148F2E1
:104C30001F534843C5F2EB13A0FB036C5689978AB8
:104C40004E43A6FB035E958948F68904D08A6D021F
:104C5000C8F688044F43A5FB04584843A7FB031735
:104C6000D589A0FB030190886D02A5FB0454ADF823
:104C700030004FEA5C10558A4AF6AB26ADF83A0090
:104C80004FEA5E10CAF6AA26ADF83C004FEA58106B
:104C9000A5FB0656ADF81E006009ADF81C00B00873
:104CA000ADF820007809D388ADF81A004809ADF8AE
:104CB0001800107E5588ADF83430138A518B8DF86A
:104CC0003E0006A8ADF832500B93ADF816100DF16A
:104CD0001A0108AA029040F20C000DF11607CDE966
:104CE0000021C2F200000CA90DF11E0207AB0397D0
:104CF000FCF794FC0025284610B0BDE8F08100BF09
:104D0000052501202080284610B0BDE8F08100BFB5
:104D1000013228E0023226E040F28C1009B2C2F2E1
:104D20000000FEF73DFC15E040F28C1009B2C2F223
:104D30000000FEF719FC0DE040F28C10C2F20000FA
:104D4000FEF730FC06E000BF40F28C10C2F200001B
:104D5000FEF704FC002502202080284610B0BDE8A4
:104D6000F08100BF0332002010700425284610B0E7
:104D7000BDE8F0810525EEE7D2F802004AF6AB2146
:104D8000C2F6AA2150FB01F000EBD070D28801B22C
:104D900040F26410C2F20000FDF712FE0025284622
:104DA00010B0BDE8F08100BF40F22810C2F2000050
:104DB00010B0BDE8F041FDF7A1BE00BF05252846B3
:104DC00010B0BDE8F08100BF20B34AF6AB2C40F232
:104DD000002E0022C2F6AA2CC2F2000ED5B2EB00C1
:104DE00031F935401E1D06336D00CB5A55FA82F558
:104DF00054FB0CF48E5B0EEB8505013204EBD4748E
:104E0000AB81D3B22E82EC8198424FF00005E5D8F9
:104E1000E5E500BF0025284610B0BDE8F0810000A0
:104E2000002808BF70472DE9F041D0E914764FF013
:104E300000080446C18080F84F8030460D4601F0DE
:104E40008DFA3846042100F091FB60887178684340
:104E500002B292FBF1F13086B0803846F18000F06A
:104E600055FB01B23846002200F0F4FAB4F91010F4
:104E7000A289384600F0EEFAE089A289684301B2BF
:104E8000304601F07BFAA089218884F84E8048439F
:104E900044F6D351C1F26201A0FB0101012000EBF5
:104EA00091106169A080A160BDE8F04170470000E9
:104EB00010B5C8B30446808828B101380104A08029
:104EC0001CBF012010BDA16871B38888B4F84820C8
:104ED00050434CF6CD42CCF6CC42A0FB0203206DF1
:104EE0000A8843F3CF0100F0B5FAA168E3884A8845
:104EF000606D53430A8819B201F040FAA168228814
:104F000008888968504344F6D352C1F26202A0FB7C
:104F10000202012000EB9212A28094F84F20A160BF
:104F2000511C84F84F1010BD002010BD002804BF94
:104F30000020704790F84B1090F84F2000208A42D4
:104F400028BF012070470000002814BFC08800203F
:104F500000B27047002808BF7047436901654FF0F1
:104F60000001426573B19A6882B1926892B1926809
:104F70000423002A4FF0050208BF032308BF0422C0
:104F80000AE000BF0122002306E000BF0222012345
:104F900002E000BF0322022303EB430300EB830381
:104FA000596180F84A207047002804BF00207047EC
:104FB00090F84F1001EB410100EB8100C089B0FA7D
:104FC00080F0400970470000002808BF704710B506
:104FD0000446084601F01EF96E21B1FBF0F0A4F87A
:104FE0004800BDE8104070472DE9F0414FF6FF72D0
:104FF000914204463DD0626994F819C04FF0000E0A
:1050000022F81C10B4F80A805FFA88F525B3002650
:10501000002000BFF7B232F8173046F00107FFB2A8
:10502000BD42184419D932F8173046F00207FFB2D2
:10503000BD42184411D932F8173046F00307FFB2C9
:10504000BD42184409D932F817300436F7B2BD42D0
:105050001844DFD801E000BF0020B0FBF8F0A180C9
:10506000E080A8F10100604588BF0CF1010E84F8D2
:1050700019E0204600F004F82081BDE8F08100002E
:105080008289C389B0F806C09A4209D194451FD8D5
:10509000408A0022844538BF01229000704700BF3B
:1050A000418A8C453EBF042108467047017C39B1D6
:1050B0000021944584BF017402210846704700BF57
:1050C0009C4505D20121017400210846704700BFAC
:1050D000022108467047000080B58189428A4389D1
:1050E00011444FEA510CFBB142690323043200BF63
:1050F00022F804CCB0F80AE0991E714514D222F8C7
:1051000002CCB0F80AE0591E71450DD2A2F800C0D9
:1051100041898B4208D2A2F802C0B0F80AE0591CBB
:10512000043308327145E3D30021A0F804C0A0F88D
:1051300006C0417680BD0000FFF7CEBF70B540F2DB
:10514000A846C2F20006044641F2AE6556F82000B9
:10515000C2F200050121297100F06AF956F8240015
:1051600000F0D4F925F8340040F20C05C2F2000535
:105170002846FCF7E7FB2846FCF7F2FA2846FBF73F
:10518000BBFF41F24070C2F2000050F82400BDE8BD
:105190007040FEF719BC000010B582B040F26411F7
:1051A000C2F20001C97E0446062923D004290FD18A
:1051B00040F20020C2F20000FFF7F6FE40B140F2DC
:1051C0000020C2F20000FFF7BFFE014601E000BF71
:1051D000002140F2B810C2F20000FEF7CFFB40F20F
:1051E000FC30C2F200008188ADF806100DF1060116
:1051F00001F05EF840F20C00C2F20000FBF71CFF69
:1052000000F0D8F9204602B010BD000070B541F2A0
:10521000407140F2B810C2F20001C2F20000086012
:10522000FEF7C0FA40F28C14C2F200042046FEF7EA
:1052300089F940F20C05C2F200052846FBF794FFFD
:1052400040F2A846C2F20006306821462A4600F025
:1052500073F9316840F2002040F2FC32C2F20000E3
:10526000C2F20002FFF776FE0020FFF767FF30680A
:1052700000F05CF9014640F26410C2F20000002226
:10528000BDE87040FDF79CBB10B50446FEF7EAF997
:105290002046FEF7D9F90020E08384F8200010BDF5
:1052A000F0B581B00446006905682046FEF7EEF9C6
:1052B00075B1287803280BD12069FDF7E3FB062898
:1052C00006D194F8200048B1207B78B91BE000BFDC
:1052D000002084F8200001B0F0BD00BFE08BC04387
:1052E000E083012084F82000207B60B16068217A8F
:1052F00020FA01F6E08B618BB7B2421ABA4205DAA6
:105300000844B84202D9002001B0F0BD686900F03D
:1053100021F8218BA28BB7FBF1F16769114400EBF7
:10532000E03282EAE0328A1A13B202EBE33282EA16
:10533000E3324FF47A7313FB02F2B2FBF7F2002868
:1053400048BF494209B2284600F084F8E6830120AC
:1053500001B0F0BDB0F90C0070470000B0F90E00CC
:105360007047000070B502460378B1F9000092F86A
:1053700003C000EBE03181EAE030B2F912101E46C2
:1053800001EBE13585EAE131158BB2F814E0D48AFE
:1053900089B263453CBF0136002380B2A94288BF71
:1053A0003346A04238BF3346704588BF3346D8B233
:1053B000B0EB0C0018BF0120137070BD70B568B160
:1053C000044600780422042808BF0822E168A55892
:1053D000022907D3A2690139154408E0002080B2F0
:1053E00070BD00BF012903D161880D040021E16077
:1053F000032815D16069E91705EB1146FFF7AAFFED
:10540000C0EB164115F5803FD8BFA0EB16412069CF
:1054100009B2FEF7D1F8010480B2C4E9015170BDB0
:10542000E81705EB1040001480B2A56070BD0000C5
:10543000002808BF704710B504460078032803D140
:1054400020690021FEF786F8A08D0004A060BDE869
:105450001040704770B550B30446007816460D46AC
:1054600004281DD1204600F051F8E18C8D42C4BFC4
:10547000002070BD0146EEB1A08B44F6D3527043BC
:10548000C1F26202A0FB02020120691A00EB921233
:10549000090491FBF2F16580E260A16170BD00BF7B
:1054A000E08B854203DCB4F92400A84210DD002023
:1054B00070BD00BF20782904082203284FF00000A7
:1054C00008BF0422A150E060A061012070BD00BFB0
:1054D0006068228CC11700EB114095424FEA2041D1
:1054E000C9DAB4F92200A842BCBF002070BDC2E7EF
:1054F000002808BF704710B504464069FFF72AFF2F
:1055000000046060BDE8104070470000002814BF30
:10551000408900207047000000280FBF002040682D
:10552000C11700EB114018BF00147047002814BFCA
:10553000408D002000B27047002808BF704780B53A
:1055400090F82830B0F82AC00370838D4FEA0C4CD5
:105550001B044FF0000EA0F802E0C0E901C3C0E94F
:1055600003E1C0E9052EBDE88040704700281EBF5A
:1055700001700021C1607047002818BF4161704769
:10558000B0B541F2AE65C2F20005044605EBC000BD
:105590000079002818BFB0BD40F2A840C2F2000058
:1055A00050F82400FFF70AFF25F83400B0BD0000D2
:1055B00070470000F0B581B0FEF7BEFBFEF78EFA33
:1055C00040F20020C2F20000FFF7BEFC41F2407141
:1055D000C2F2000141F2AE670A68C2F200073988E0
:1055E00004461046FEF7E0F940F20C05C2F2000551
:1055F00095F8670070B140F2B815C2F20005284670
:105600002146FEF7A9F82846FEF70CF9002001B064
:10561000F0BD00BF40F2A840C2F2000000680028C0
:1056200014BF466900262846FBF780FF311D00287D
:1056300018BF291D0D883046FFF790FE06464CF234
:105640000000CFF6FF70002CC8BF4FF4804029182F
:1056500040F2B810C2F20000F9804182FEF746F82D
:105660000028D3D040F2B810C2F20000FEF7DAF8FA
:1056700040F20C00C2F200003146FCF727F900208E
:1056800001B0F0BD10B540F2A434C2F2000420789D
:10569000022804D1FCF79AF9FCF76AFA00200021ED
:1056A0000130C4F2020120700868800707D502208B
:1056B000486040F23440C2F20000FAF751FFBDE802
:1056C0001040FDF71DBE000080B582B042F2000020
:1056D000C4F202000168042262F30301016000BF0A
:1056E000016801F00F0104290ED0016801F00F01DB
:1056F000042909D0016801F00F01042904D00168D0
:1057000001F00F010429EBD147F28001C4F200013E
:105710000A6841F2000022F48072C4F202000A60BA
:10572000016841F480310160016889035FBF01684D
:105730005FEA813101685FEA813102D4016889033F
:10574000F2D5016848F20C0241F400210160C16801
:10575000CFF6FF12114045F213521143C160C168E8
:1057600048F20C02C0F2FF72114045F21352C4F22B
:1057700000021143C160C16841F08071C160C1681D
:1057800041F48031C160016841F08071016000BF67
:10579000016889015FBF01685FEA811101685FEA02
:1057A000811102D401688901F2D58168082241F093
:1057B00003018160816862F307118160816801F0F3
:1057C0000C010C290ED0816801F00C010C2909D0C4
:1057D000816801F00C010C2904D0816801F00C01F2
:1057E0000C29EBD1552101910199A1B10199013900
:1057F0000191019979B1019901390191019951B151
:10580000019901390191019929B101990139019158
:1058100001990029EAD1816821F0F0018160816855
:1058200021F4E0618160816821F4605181604FF66C
:105830008060C0F62120FCF777FD0420FCF7ECF82F
:1058400020B1EFF3108072B6FEE700BF02B080BD5A
:105850004EF68850CEF20000016841F470010160FC
:105860007047000010B542F61044C4F201042068ED
:10587000000607D42068C00510D4BDE81040FDF72D
:105880003FBD00BF6FF08000206040F2B810C2F250
:105890000000FDF713FF2068C005EED56FF480709F
:1058A000206040F2B810C2F20000FDF707FFBDE82B
:1058B0001040FDF725BD000042F61040C4F2010083
:1058C0006FF00101016000F055B80000B0B540F282
:1058D0000C04C2F20004A06C00680169890744BF8F
:1058E000C1685FEA817101D4B0BD00BF6FF00201F1
:1058F000016194F8FC0001280ED194F8671059B1A9
:1059000040F20C00C2F200000021FBF7DFFFBDE80F
:10591000B040FFF74FBE00BF002818BFB0BDA06B5E
:1059200040F2B8150188C2F200052846FEF720F8BB
:10593000E97A05F10C022046FBF71AFF012084F8F2
:10594000FC00B0BD40F22050C2F200008088B0FAE6
:1059500080F040097047000080B50020FFF7EEFBA3
:1059600040F26410C2F2000080210022BDE88040B5
:10597000FDF74CB880B50020FFF70EFC40F27850E0
:1059800040F22812C2F20000C2F20002016892F84E
:105990002920013101602AB140F22810C2F2000032
:1059A000FDF756F9002080BDF0B583B00020ADF8BA
:1059B0000A0040F20C00C2F200000DF10A01FBF7F0
:1059C000F7FA40F26414C2F2000405462046FDF7DF
:1059D00033F818B10A20E07603B0F0BD40F2641449
:1059E000C2F200042046FDF74BF818B10B20E07618
:1059F00003B0F0BDE07E1328EED8DFE810F0190008
:105A00001700170017003F001700B1001700D9005A
:105A1000170015005F00170017001700170065003A
:105A200017001700F70000BFE0E700BFD4E700BF92
:105A3000A07E40F002000328CED12046FDF708F8F2
:105A400040F20025C2F2000501462846FFF7E8F9BA
:105A500040F20C11C2F200012846FFF7B5FA41F2FC
:105A60004070C2F2000000680021FEF705F8142023
:105A700000F0C0F91020E07603B0F0BDA07E05284C
:105A800000F0B78040F20020C2F20000FFF710FAE9
:105A9000002800F00B8140F20C00C2F20000FBF77E
:105AA000EBFA40F2A840C2F200000068FFF786FC63
:105AB00041F2AE61C2F200010880FFE0A07E022840
:105AC0007FF48AAF8EE000BFA07E052800F09180B1
:105AD000FFF738FF00283FF47FAF41F24077C2F272
